{
    "contractName": "PlantBase",
    "abi": [
        {
            "constant": true,
            "inputs": [
                {
                    "name": "interfaceId",
                    "type": "bytes4"
                }
            ],
            "name": "supportsInterface",
            "outputs": [
                {
                    "name": "",
                    "type": "bool"
                }
            ],
            "payable": false,
            "stateMutability": "view",
            "type": "function"
        },
        {
            "constant": true,
            "inputs": [],
            "name": "name",
            "outputs": [
                {
                    "name": "",
                    "type": "string"
                }
            ],
            "payable": false,
            "stateMutability": "view",
            "type": "function"
        },
        {
            "constant": true,
            "inputs": [
                {
                    "name": "tokenId",
                    "type": "uint256"
                }
            ],
            "name": "getApproved",
            "outputs": [
                {
                    "name": "",
                    "type": "address"
                }
            ],
            "payable": false,
            "stateMutability": "view",
            "type": "function"
        },
        {
            "constant": false,
            "inputs": [
                {
                    "name": "to",
                    "type": "address"
                },
                {
                    "name": "tokenId",
                    "type": "uint256"
                }
            ],
            "name": "approve",
            "outputs": [],
            "payable": false,
            "stateMutability": "nonpayable",
            "type": "function"
        },
        {
            "constant": true,
            "inputs": [],
            "name": "totalSupply",
            "outputs": [
                {
                    "name": "",
                    "type": "uint256"
                }
            ],
            "payable": false,
            "stateMutability": "view",
            "type": "function"
        },
        {
            "constant": true,
            "inputs": [
                {
                    "name": "",
                    "type": "address"
                }
            ],
            "name": "isApprovedERC20",
            "outputs": [
                {
                    "name": "",
                    "type": "bool"
                }
            ],
            "payable": false,
            "stateMutability": "view",
            "type": "function"
        },
        {
            "constant": false,
            "inputs": [
                {
                    "name": "from",
                    "type": "address"
                },
                {
                    "name": "to",
                    "type": "address"
                },
                {
                    "name": "tokenId",
                    "type": "uint256"
                }
            ],
            "name": "transferFrom",
            "outputs": [],
            "payable": false,
            "stateMutability": "nonpayable",
            "type": "function"
        },
        {
            "constant": true,
            "inputs": [],
            "name": "minPlantPrice",
            "outputs": [
                {
                    "name": "",
                    "type": "uint256"
                }
            ],
            "payable": false,
            "stateMutability": "view",
            "type": "function"
        },
        {
            "constant": true,
            "inputs": [
                {
                    "name": "owner",
                    "type": "address"
                },
                {
                    "name": "index",
                    "type": "uint256"
                }
            ],
            "name": "tokenOfOwnerByIndex",
            "outputs": [
                {
                    "name": "",
                    "type": "uint256"
                }
            ],
            "payable": false,
            "stateMutability": "view",
            "type": "function"
        },
        {
            "constant": false,
            "inputs": [
                {
                    "name": "from",
                    "type": "address"
                },
                {
                    "name": "to",
                    "type": "address"
                },
                {
                    "name": "tokenId",
                    "type": "uint256"
                }
            ],
            "name": "safeTransferFrom",
            "outputs": [],
            "payable": false,
            "stateMutability": "nonpayable",
            "type": "function"
        },
        {
            "constant": true,
            "inputs": [],
            "name": "shippingFee",
            "outputs": [
                {
                    "name": "",
                    "type": "uint256"
                }
            ],
            "payable": false,
            "stateMutability": "view",
            "type": "function"
        },
        {
            "constant": true,
            "inputs": [
                {
                    "name": "index",
                    "type": "uint256"
                }
            ],
            "name": "tokenByIndex",
            "outputs": [
                {
                    "name": "",
                    "type": "uint256"
                }
            ],
            "payable": false,
            "stateMutability": "view",
            "type": "function"
        },
        {
            "constant": true,
            "inputs": [
                {
                    "name": "tokenId",
                    "type": "uint256"
                }
            ],
            "name": "ownerOf",
            "outputs": [
                {
                    "name": "",
                    "type": "address"
                }
            ],
            "payable": false,
            "stateMutability": "view",
            "type": "function"
        },
        {
            "constant": true,
            "inputs": [
                {
                    "name": "owner",
                    "type": "address"
                }
            ],
            "name": "balanceOf",
            "outputs": [
                {
                    "name": "",
                    "type": "uint256"
                }
            ],
            "payable": false,
            "stateMutability": "view",
            "type": "function"
        },
        {
            "constant": true,
            "inputs": [],
            "name": "owner",
            "outputs": [
                {
                    "name": "",
                    "type": "address"
                }
            ],
            "payable": false,
            "stateMutability": "view",
            "type": "function"
        },
        {
            "constant": true,
            "inputs": [
                {
                    "name": "",
                    "type": "uint256"
                }
            ],
            "name": "plants",
            "outputs": [
                {
                    "name": "seed",
                    "type": "uint256"
                },
                {
                    "name": "value",
                    "type": "uint256"
                },
                {
                    "name": "plantTime",
                    "type": "uint256"
                },
                {
                    "name": "ERC20Address",
                    "type": "address"
                }
            ],
            "payable": false,
            "stateMutability": "view",
            "type": "function"
        },
        {
            "constant": true,
            "inputs": [],
            "name": "isOwner",
            "outputs": [
                {
                    "name": "",
                    "type": "bool"
                }
            ],
            "payable": false,
            "stateMutability": "view",
            "type": "function"
        },
        {
            "constant": true,
            "inputs": [],
            "name": "symbol",
            "outputs": [
                {
                    "name": "",
                    "type": "string"
                }
            ],
            "payable": false,
            "stateMutability": "view",
            "type": "function"
        },
        {
            "constant": true,
            "inputs": [],
            "name": "timeToGrow",
            "outputs": [
                {
                    "name": "",
                    "type": "uint256"
                }
            ],
            "payable": false,
            "stateMutability": "view",
            "type": "function"
        },
        {
            "constant": false,
            "inputs": [
                {
                    "name": "to",
                    "type": "address"
                },
                {
                    "name": "approved",
                    "type": "bool"
                }
            ],
            "name": "setApprovalForAll",
            "outputs": [],
            "payable": false,
            "stateMutability": "nonpayable",
            "type": "function"
        },
        {
            "constant": false,
            "inputs": [
                {
                    "name": "from",
                    "type": "address"
                },
                {
                    "name": "to",
                    "type": "address"
                },
                {
                    "name": "tokenId",
                    "type": "uint256"
                },
                {
                    "name": "_data",
                    "type": "bytes"
                }
            ],
            "name": "safeTransferFrom",
            "outputs": [],
            "payable": false,
            "stateMutability": "nonpayable",
            "type": "function"
        },
        {
            "constant": true,
            "inputs": [
                {
                    "name": "tokenId",
                    "type": "uint256"
                }
            ],
            "name": "tokenURI",
            "outputs": [
                {
                    "name": "",
                    "type": "string"
                }
            ],
            "payable": false,
            "stateMutability": "view",
            "type": "function"
        },
        {
            "constant": true,
            "inputs": [
                {
                    "name": "owner",
                    "type": "address"
                },
                {
                    "name": "operator",
                    "type": "address"
                }
            ],
            "name": "isApprovedForAll",
            "outputs": [
                {
                    "name": "",
                    "type": "bool"
                }
            ],
            "payable": false,
            "stateMutability": "view",
            "type": "function"
        },
        {
            "constant": false,
            "inputs": [
                {
                    "name": "newOwner",
                    "type": "address"
                }
            ],
            "name": "transferOwnership",
            "outputs": [],
            "payable": false,
            "stateMutability": "nonpayable",
            "type": "function"
        },
        {
            "inputs": [],
            "payable": false,
            "stateMutability": "nonpayable",
            "type": "constructor"
        },
        {
            "anonymous": false,
            "inputs": [
                {
                    "indexed": false,
                    "name": "plantId",
                    "type": "uint256"
                },
                {
                    "indexed": false,
                    "name": "stats",
                    "type": "uint256"
                }
            ],
            "name": "Grown",
            "type": "event"
        },
        {
            "anonymous": false,
            "inputs": [
                {
                    "indexed": true,
                    "name": "previousOwner",
                    "type": "address"
                },
                {
                    "indexed": true,
                    "name": "newOwner",
                    "type": "address"
                }
            ],
            "name": "OwnershipTransferred",
            "type": "event"
        },
        {
            "anonymous": false,
            "inputs": [
                {
                    "indexed": true,
                    "name": "from",
                    "type": "address"
                },
                {
                    "indexed": true,
                    "name": "to",
                    "type": "address"
                },
                {
                    "indexed": true,
                    "name": "tokenId",
                    "type": "uint256"
                }
            ],
            "name": "Transfer",
            "type": "event"
        },
        {
            "anonymous": false,
            "inputs": [
                {
                    "indexed": true,
                    "name": "owner",
                    "type": "address"
                },
                {
                    "indexed": true,
                    "name": "approved",
                    "type": "address"
                },
                {
                    "indexed": true,
                    "name": "tokenId",
                    "type": "uint256"
                }
            ],
            "name": "Approval",
            "type": "event"
        },
        {
            "anonymous": false,
            "inputs": [
                {
                    "indexed": true,
                    "name": "owner",
                    "type": "address"
                },
                {
                    "indexed": true,
                    "name": "operator",
                    "type": "address"
                },
                {
                    "indexed": false,
                    "name": "approved",
                    "type": "bool"
                }
            ],
            "name": "ApprovalForAll",
            "type": "event"
        },
        {
            "constant": false,
            "inputs": [],
            "name": "mint",
            "outputs": [],
            "payable": true,
            "stateMutability": "payable",
            "type": "function"
        },
        {
            "constant": false,
            "inputs": [
                {
                    "name": "_address",
                    "type": "address"
                }
            ],
            "name": "mintERC20",
            "outputs": [],
            "payable": true,
            "stateMutability": "payable",
            "type": "function"
        },
        {
            "constant": false,
            "inputs": [
                {
                    "name": "_tokenId",
                    "type": "uint256"
                }
            ],
            "name": "shipIt",
            "outputs": [],
            "payable": false,
            "stateMutability": "nonpayable",
            "type": "function"
        },
        {
            "constant": false,
            "inputs": [
                {
                    "name": "_tokenId",
                    "type": "uint256"
                }
            ],
            "name": "refund",
            "outputs": [],
            "payable": false,
            "stateMutability": "nonpayable",
            "type": "function"
        },
        {
            "constant": true,
            "inputs": [],
            "name": "debugTime",
            "outputs": [
                {
                    "name": "",
                    "type": "uint256"
                }
            ],
            "payable": false,
            "stateMutability": "view",
            "type": "function"
        },
        {
            "constant": false,
            "inputs": [
                {
                    "name": "_address",
                    "type": "address"
                }
            ],
            "name": "approveERC20",
            "outputs": [],
            "payable": false,
            "stateMutability": "nonpayable",
            "type": "function"
        }
    ],
    "bytecode": "0x6080604052655af3107a4000600d55655af3107a4000600e556000600f553480156200002a57600080fd5b506040518060400160405280600c81526020017f45746867617264656e2e696f00000000000000000000000000000000000000008152506040518060400160405280600481526020017f47524f57000000000000000000000000000000000000000000000000000000008152508181620000b16301ffc9a760e01b620001d760201b60201c565b620000c96380ac58cd60e01b620001d760201b60201c565b620000e163780e9d6360e01b620001d760201b60201c565b8160099080519060200190620000f9929190620002e0565b5080600a908051906020019062000112929190620002e0565b506200012b635b5e139f60e01b620001d760201b60201c565b50505050600033905080600c60006101000a81548173ffffffffffffffffffffffffffffffffffffffff021916908373ffffffffffffffffffffffffffffffffffffffff1602179055508073ffffffffffffffffffffffffffffffffffffffff16600073ffffffffffffffffffffffffffffffffffffffff167f8be0079c531659141344cd1fd0a4f28419497f9722a3daafe3b4186f6b6457e060405160405180910390a3506200038f565b63ffffffff60e01b817bffffffffffffffffffffffffffffffffffffffffffffffffffffffff1916141562000274576040517f08c379a000000000000000000000000000000000000000000000000000000000815260040180806020018281038252601c8152602001807f4552433136353a20696e76616c696420696e746572666163652069640000000081525060200191505060405180910390fd5b6001600080837bffffffffffffffffffffffffffffffffffffffffffffffffffffffff19167bffffffffffffffffffffffffffffffffffffffffffffffffffffffff1916815260200190815260200160002060006101000a81548160ff02191690831515021790555050565b828054600181600116156101000203166002900490600052602060002090601f016020900481019282601f106200032357805160ff191683800117855562000354565b8280016001018555821562000354579182015b828111156200035357825182559160200191906001019062000336565b5b50905062000363919062000367565b5090565b6200038c91905b80821115620003885760008160009055506001016200036e565b5090565b90565b613cef806200039f6000396000f3fe6080604052600436106101cd5760003560e01c80636352211e116100f757806395d89b4111610095578063c87b56dd11610064578063c87b56dd14610b7d578063df58c91014610c31578063e985e9c514610c5c578063f2fde38b14610ce5576101cd565b806395d89b41146109535780639cf0d858146109e3578063a22cb46514610a0e578063b88d4fde14610a6b576101cd565b80637cab8fe8116100d15780637cab8fe8146108025780638da5cb5b1461083d5780638dd2361c146108945780638f32d59b14610924576101cd565b80636352211e146106de5780636d731f6c1461075957806370a082311461079d576101cd565b80631eb9bbd41161016f5780632f745c591161013e5780632f745c591461057a57806342842e0e146105e95780634abaf07e146106645780634f6ccce71461068f576101cd565b80631eb9bbd41461043057806323b872dd14610499578063278ecde1146105145780632871ac621461054f576101cd565b8063095ea7b3116101ab578063095ea7b31461034f57806311e8701c146103aa5780631249c58b146103fb57806318160ddd14610405576101cd565b806301ffc9a7146101d257806306fdde0314610244578063081812fc146102d4575b600080fd5b3480156101de57600080fd5b5061022a600480360360208110156101f557600080fd5b8101908080357bffffffffffffffffffffffffffffffffffffffffffffffffffffffff19169060200190929190505050610d36565b604051808215151515815260200191505060405180910390f35b34801561025057600080fd5b50610259610d9d565b6040518080602001828103825283818151815260200191508051906020019080838360005b8381101561029957808201518184015260208101905061027e565b50505050905090810190601f1680156102c65780820380516001836020036101000a031916815260200191505b509250505060405180910390f35b3480156102e057600080fd5b5061030d600480360360208110156102f757600080fd5b8101908080359060200190929190505050610e3f565b604051808273ffffffffffffffffffffffffffffffffffffffff1673ffffffffffffffffffffffffffffffffffffffff16815260200191505060405180910390f35b34801561035b57600080fd5b506103a86004803603604081101561037257600080fd5b81019080803573ffffffffffffffffffffffffffffffffffffffff16906020019092919080359060200190929190505050610eda565b005b3480156103b657600080fd5b506103f9600480360360208110156103cd57600080fd5b81019080803573ffffffffffffffffffffffffffffffffffffffff1690602001909291905050506110b3565b005b610403611188565b005b34801561041157600080fd5b5061041a6112fb565b6040518082815260200191505060405180910390f35b34801561043c57600080fd5b5061047f6004803603602081101561045357600080fd5b81019080803573ffffffffffffffffffffffffffffffffffffffff169060200190929190505050611308565b604051808215151515815260200191505060405180910390f35b3480156104a557600080fd5b50610512600480360360608110156104bc57600080fd5b81019080803573ffffffffffffffffffffffffffffffffffffffff169060200190929190803573ffffffffffffffffffffffffffffffffffffffff16906020019092919080359060200190929190505050611328565b005b34801561052057600080fd5b5061054d6004803603602081101561053757600080fd5b8101908080359060200190929190505050611397565b005b34801561055b57600080fd5b50610564611653565b6040518082815260200191505060405180910390f35b34801561058657600080fd5b506105d36004803603604081101561059d57600080fd5b81019080803573ffffffffffffffffffffffffffffffffffffffff16906020019092919080359060200190929190505050611659565b6040518082815260200191505060405180910390f35b3480156105f557600080fd5b506106626004803603606081101561060c57600080fd5b81019080803573ffffffffffffffffffffffffffffffffffffffff169060200190929190803573ffffffffffffffffffffffffffffffffffffffff16906020019092919080359060200190929190505050611718565b005b34801561067057600080fd5b50610679611738565b6040518082815260200191505060405180910390f35b34801561069b57600080fd5b506106c8600480360360208110156106b257600080fd5b810190808035906020019092919050505061173e565b6040518082815260200191505060405180910390f35b3480156106ea57600080fd5b506107176004803603602081101561070157600080fd5b81019080803590602001909291905050506117be565b604051808273ffffffffffffffffffffffffffffffffffffffff1673ffffffffffffffffffffffffffffffffffffffff16815260200191505060405180910390f35b61079b6004803603602081101561076f57600080fd5b81019080803573ffffffffffffffffffffffffffffffffffffffff169060200190929190505050611886565b005b3480156107a957600080fd5b506107ec600480360360208110156107c057600080fd5b81019080803573ffffffffffffffffffffffffffffffffffffffff169060200190929190505050611e80565b6040518082815260200191505060405180910390f35b34801561080e57600080fd5b5061083b6004803603602081101561082557600080fd5b8101908080359060200190929190505050611f55565b005b34801561084957600080fd5b5061085261225f565b604051808273ffffffffffffffffffffffffffffffffffffffff1673ffffffffffffffffffffffffffffffffffffffff16815260200191505060405180910390f35b3480156108a057600080fd5b506108cd600480360360208110156108b757600080fd5b8101908080359060200190929190505050612289565b604051808581526020018481526020018381526020018273ffffffffffffffffffffffffffffffffffffffff1673ffffffffffffffffffffffffffffffffffffffff16815260200194505050505060405180910390f35b34801561093057600080fd5b506109396122e6565b604051808215151515815260200191505060405180910390f35b34801561095f57600080fd5b5061096861233e565b6040518080602001828103825283818151815260200191508051906020019080838360005b838110156109a857808201518184015260208101905061098d565b50505050905090810190601f1680156109d55780820380516001836020036101000a031916815260200191505b509250505060405180910390f35b3480156109ef57600080fd5b506109f86123e0565b6040518082815260200191505060405180910390f35b348015610a1a57600080fd5b50610a6960048036036040811015610a3157600080fd5b81019080803573ffffffffffffffffffffffffffffffffffffffff1690602001909291908035151590602001909291905050506123e6565b005b348015610a7757600080fd5b50610b7b60048036036080811015610a8e57600080fd5b81019080803573ffffffffffffffffffffffffffffffffffffffff169060200190929190803573ffffffffffffffffffffffffffffffffffffffff1690602001909291908035906020019092919080359060200190640100000000811115610af557600080fd5b820183602082011115610b0757600080fd5b80359060200191846001830284011164010000000083111715610b2957600080fd5b91908080601f016020809104026020016040519081016040528093929190818152602001838380828437600081840152601f19601f820116905080830192505050505050509192919290505050612589565b005b348015610b8957600080fd5b50610bb660048036036020811015610ba057600080fd5b81019080803590602001909291905050506125fa565b6040518080602001828103825283818151815260200191508051906020019080838360005b83811015610bf6578082015181840152602081019050610bdb565b50505050905090810190601f168015610c235780820380516001836020036101000a031916815260200191505b509250505060405180910390f35b348015610c3d57600080fd5b50610c4661270d565b6040518082815260200191505060405180910390f35b348015610c6857600080fd5b50610ccb60048036036040811015610c7f57600080fd5b81019080803573ffffffffffffffffffffffffffffffffffffffff169060200190929190803573ffffffffffffffffffffffffffffffffffffffff169060200190929190505050612715565b604051808215151515815260200191505060405180910390f35b348015610cf157600080fd5b50610d3460048036036020811015610d0857600080fd5b81019080803573ffffffffffffffffffffffffffffffffffffffff1690602001909291905050506127a9565b005b6000806000837bffffffffffffffffffffffffffffffffffffffffffffffffffffffff19167bffffffffffffffffffffffffffffffffffffffffffffffffffffffff1916815260200190815260200160002060009054906101000a900460ff169050919050565b606060098054600181600116156101000203166002900480601f016020809104026020016040519081016040528092919081815260200182805460018160011615610100020316600290048015610e355780601f10610e0a57610100808354040283529160200191610e35565b820191906000526020600020905b815481529060010190602001808311610e1857829003601f168201915b5050505050905090565b6000610e4a8261282f565b610e9f576040517f08c379a000000000000000000000000000000000000000000000000000000000815260040180806020018281038252602c815260200180613b9d602c913960400191505060405180910390fd5b6002600083815260200190815260200160002060009054906101000a900473ffffffffffffffffffffffffffffffffffffffff169050919050565b6000610ee5826117be565b90508073ffffffffffffffffffffffffffffffffffffffff168373ffffffffffffffffffffffffffffffffffffffff161415610f6c576040517f08c379a0000000000000000000000000000000000000000000000000000000008152600401808060200182810382526021815260200180613c216021913960400191505060405180910390fd5b8073ffffffffffffffffffffffffffffffffffffffff163373ffffffffffffffffffffffffffffffffffffffff161480610fac5750610fab8133612715565b5b611001576040517f08c379a0000000000000000000000000000000000000000000000000000000008152600401808060200182810382526038815260200180613b126038913960400191505060405180910390fd5b826002600084815260200190815260200160002060006101000a81548173ffffffffffffffffffffffffffffffffffffffff021916908373ffffffffffffffffffffffffffffffffffffffff160217905550818373ffffffffffffffffffffffffffffffffffffffff168273ffffffffffffffffffffffffffffffffffffffff167f8c5be1e5ebec7d5bd14f71427d1e84f3dd0314c0f7b2291e5b200ac8c7c3b92560405160405180910390a4505050565b6110bb6122e6565b61112d576040517f08c379a00000000000000000000000000000000000000000000000000000000081526004018080602001828103825260208152602001807f4f776e61626c653a2063616c6c6572206973206e6f7420746865206f776e657281525060200191505060405180910390fd5b6001601060008373ffffffffffffffffffffffffffffffffffffffff1673ffffffffffffffffffffffffffffffffffffffff16815260200190815260200160002060006101000a81548160ff02191690831515021790555050565b600e54600d5401341015611204576040517f08c379a000000000000000000000000000000000000000000000000000000000815260040180806020018281038252601b8152602001807f4120706c616e7420636f7374206d6f7265207468616e2074686174000000000081525060200191505060405180910390fd5b6000600d5434039050611215613935565b604051806080016040528060008152602001838152602001438152602001600073ffffffffffffffffffffffffffffffffffffffff168152509050600060016011839080600181540180825580915050906001820390600052602060002090600402016000909192909190915060008201518160000155602082015181600101556040820151816002015560608201518160030160006101000a81548173ffffffffffffffffffffffffffffffffffffffff021916908373ffffffffffffffffffffffffffffffffffffffff16021790555050500390506112f633826128a1565b505050565b6000600780549050905090565b60106020528060005260406000206000915054906101000a900460ff1681565b61133233826128c2565b611387576040517f08c379a0000000000000000000000000000000000000000000000000000000008152600401808060200182810382526031815260200180613c426031913960400191505060405180910390fd5b6113928383836129b6565b505050565b6113a0816129da565b600073ffffffffffffffffffffffffffffffffffffffff16601182815481106113c557fe5b906000526020600020906004020160030160009054906101000a900473ffffffffffffffffffffffffffffffffffffffff1673ffffffffffffffffffffffffffffffffffffffff16141561147d573373ffffffffffffffffffffffffffffffffffffffff166108fc6011838154811061143a57fe5b9060005260206000209060040201600101549081150290604051600060405180830381858888f19350505050158015611477573d6000803e3d6000fd5b50611650565b6011818154811061148a57fe5b906000526020600020906004020160030160009054906101000a900473ffffffffffffffffffffffffffffffffffffffff1673ffffffffffffffffffffffffffffffffffffffff1633601183815481106114e057fe5b906000526020600020906004020160010154604051602401808373ffffffffffffffffffffffffffffffffffffffff1673ffffffffffffffffffffffffffffffffffffffff168152602001828152602001925050506040516020818303038152906040527fa9059cbb000000000000000000000000000000000000000000000000000000007bffffffffffffffffffffffffffffffffffffffffffffffffffffffff19166020820180517bffffffffffffffffffffffffffffffffffffffffffffffffffffffff83818316178352505050506040518082805190602001908083835b602083106115e557805182526020820191506020810190506020830392506115c2565b6001836020036101000a0380198251168184511680821785525050505050509050019150506000604051808303816000865af19150503d8060008114611647576040519150601f19603f3d011682016040523d82523d6000602084013e61164c565b606091505b5050505b50565b600e5481565b600061166483611e80565b82106116bb576040517f08c379a000000000000000000000000000000000000000000000000000000000815260040180806020018281038252602b815260200180613a0d602b913960400191505060405180910390fd5b600560008473ffffffffffffffffffffffffffffffffffffffff1673ffffffffffffffffffffffffffffffffffffffff168152602001908152602001600020828154811061170557fe5b9060005260206000200154905092915050565b61173383838360405180602001604052806000815250612589565b505050565b600d5481565b60006117486112fb565b821061179f576040517f08c379a000000000000000000000000000000000000000000000000000000000815260040180806020018281038252602c815260200180613c73602c913960400191505060405180910390fd5b600782815481106117ac57fe5b90600052602060002001549050919050565b6000806001600084815260200190815260200160002060009054906101000a900473ffffffffffffffffffffffffffffffffffffffff169050600073ffffffffffffffffffffffffffffffffffffffff168173ffffffffffffffffffffffffffffffffffffffff16141561187d576040517f08c379a0000000000000000000000000000000000000000000000000000000008152600401808060200182810382526029815260200180613b746029913960400191505060405180910390fd5b80915050919050565b601060008273ffffffffffffffffffffffffffffffffffffffff1673ffffffffffffffffffffffffffffffffffffffff16815260200190815260200160002060009054906101000a900460ff16611928576040517f08c379a0000000000000000000000000000000000000000000000000000000008152600401808060200182810382526032815260200180613ae06032913960400191505060405180910390fd5b600d543410156119a0576040517f08c379a00000000000000000000000000000000000000000000000000000000081526004018080602001828103825260148152602001807f50617920746865207368697070696e672066656500000000000000000000000081525060200191505060405180910390fd5b60608173ffffffffffffffffffffffffffffffffffffffff163330604051602401808373ffffffffffffffffffffffffffffffffffffffff1673ffffffffffffffffffffffffffffffffffffffff1681526020018273ffffffffffffffffffffffffffffffffffffffff1673ffffffffffffffffffffffffffffffffffffffff168152602001925050506040516020818303038152906040527fdd62ed3e000000000000000000000000000000000000000000000000000000007bffffffffffffffffffffffffffffffffffffffffffffffffffffffff19166020820180517bffffffffffffffffffffffffffffffffffffffffffffffffffffffff83818316178352505050506040518082805190602001908083835b60208310611ada5780518252602082019150602081019050602083039250611ab7565b6001836020036101000a038019825116818451168082178552505050505050905001915050600060405180830381855afa9150503d8060008114611b3a576040519150601f19603f3d011682016040523d82523d6000602084013e611b3f565b606091505b509150506000818060200190516020811015611b5a57600080fd5b8101908080519060200190929190505050905060008111611be3576040517f08c379a00000000000000000000000000000000000000000000000000000000081526004018080602001828103825260158152602001807f5468657265206973206e6f20616c6c6f77616e6365000000000000000000000081525060200191505060405180910390fd5b60608373ffffffffffffffffffffffffffffffffffffffff16333084604051602401808473ffffffffffffffffffffffffffffffffffffffff1673ffffffffffffffffffffffffffffffffffffffff1681526020018373ffffffffffffffffffffffffffffffffffffffff1673ffffffffffffffffffffffffffffffffffffffff16815260200182815260200193505050506040516020818303038152906040527f23b872dd000000000000000000000000000000000000000000000000000000007bffffffffffffffffffffffffffffffffffffffffffffffffffffffff19166020820180517bffffffffffffffffffffffffffffffffffffffffffffffffffffffff83818316178352505050506040518082805190602001908083835b60208310611d255780518252602082019150602081019050602083039250611d02565b6001836020036101000a0380198251168184511680821785525050505050509050019150506000604051808303816000865af19150503d8060008114611d87576040519150601f19603f3d011682016040523d82523d6000602084013e611d8c565b606091505b50915050611d98613935565b6040518060800160405280600081526020018481526020014381526020018673ffffffffffffffffffffffffffffffffffffffff168152509050600060016011839080600181540180825580915050906001820390600052602060002090600402016000909192909190915060008201518160000155602082015181600101556040820151816002015560608201518160030160006101000a81548173ffffffffffffffffffffffffffffffffffffffff021916908373ffffffffffffffffffffffffffffffffffffffff1602179055505050039050611e7833826128a1565b505050505050565b60008073ffffffffffffffffffffffffffffffffffffffff168273ffffffffffffffffffffffffffffffffffffffff161415611f07576040517f08c379a000000000000000000000000000000000000000000000000000000000815260040180806020018281038252602a815260200180613b4a602a913960400191505060405180910390fd5b611f4e600360008473ffffffffffffffffffffffffffffffffffffffff1673ffffffffffffffffffffffffffffffffffffffff1681526020019081526020016000206129ef565b9050919050565b611f5e8161282f565b611fd0576040517f08c379a000000000000000000000000000000000000000000000000000000000815260040180806020018281038252601d8152602001807f506c616e74206973206275726e6564206f72206e6f74206d696e74656400000081525060200191505060405180910390fd5b600060118281548110611fdf57fe5b90600052602060002090600402016000015414612064576040517f08c379a00000000000000000000000000000000000000000000000000000000081526004018080602001828103825260188152602001807f506c616e7420697320616c72656164792073686970706564000000000000000081525060200191505060405180910390fd5b43600f546011838154811061207557fe5b9060005260206000209060040201600201540111156120fc576040517f08c379a000000000000000000000000000000000000000000000000000000000815260040180806020018281038252601f8152602001807f506c616e74206973206e6f7420726561647920666f72207368697070696e670081525060200191505060405180910390fd5b60014303406011828154811061210e57fe5b90600052602060002090600402016001015433601180549050604051602001808581526020018481526020018373ffffffffffffffffffffffffffffffffffffffff1673ffffffffffffffffffffffffffffffffffffffff1660601b81526014018281526020019450505050506040516020818303038152906040528051906020012060001c601182815481106121a157fe5b9060005260206000209060040201600001819055503373ffffffffffffffffffffffffffffffffffffffff166108fc600d549081150290604051600060405180830381858888f193505050501580156121fe573d6000803e3d6000fd5b507fa9cf9d5bbacb0934ba3949b5d311ca852077377237480262eafdde8ac44f8580816011838154811061222e57fe5b906000526020600020906004020160000154604051808381526020018281526020019250505060405180910390a150565b6000600c60009054906101000a900473ffffffffffffffffffffffffffffffffffffffff16905090565b6011818154811061229657fe5b90600052602060002090600402016000915090508060000154908060010154908060020154908060030160009054906101000a900473ffffffffffffffffffffffffffffffffffffffff16905084565b6000600c60009054906101000a900473ffffffffffffffffffffffffffffffffffffffff1673ffffffffffffffffffffffffffffffffffffffff163373ffffffffffffffffffffffffffffffffffffffff1614905090565b6060600a8054600181600116156101000203166002900480601f0160208091040260200160405190810160405280929190818152602001828054600181600116156101000203166002900480156123d65780601f106123ab576101008083540402835291602001916123d6565b820191906000526020600020905b8154815290600101906020018083116123b957829003601f168201915b5050505050905090565b600f5481565b3373ffffffffffffffffffffffffffffffffffffffff168273ffffffffffffffffffffffffffffffffffffffff161415612488576040517f08c379a00000000000000000000000000000000000000000000000000000000081526004018080602001828103825260198152602001807f4552433732313a20617070726f766520746f2063616c6c65720000000000000081525060200191505060405180910390fd5b80600460003373ffffffffffffffffffffffffffffffffffffffff1673ffffffffffffffffffffffffffffffffffffffff16815260200190815260200160002060008473ffffffffffffffffffffffffffffffffffffffff1673ffffffffffffffffffffffffffffffffffffffff16815260200190815260200160002060006101000a81548160ff0219169083151502179055508173ffffffffffffffffffffffffffffffffffffffff163373ffffffffffffffffffffffffffffffffffffffff167f17307eab39ab6107e8899845ad3d59bd9653f200f220920489ca2b5937696c3183604051808215151515815260200191505060405180910390a35050565b61259333836128c2565b6125e8576040517f08c379a0000000000000000000000000000000000000000000000000000000008152600401808060200182810382526031815260200180613c426031913960400191505060405180910390fd5b6125f4848484846129fd565b50505050565b60606126058261282f565b61265a576040517f08c379a000000000000000000000000000000000000000000000000000000000815260040180806020018281038252602f815260200180613bf2602f913960400191505060405180910390fd5b600b60008381526020019081526020016000208054600181600116156101000203166002900480601f0160208091040260200160405190810160405280929190818152602001828054600181600116156101000203166002900480156127015780601f106126d657610100808354040283529160200191612701565b820191906000526020600020905b8154815290600101906020018083116126e457829003601f168201915b50505050509050919050565b600042905090565b6000600460008473ffffffffffffffffffffffffffffffffffffffff1673ffffffffffffffffffffffffffffffffffffffff16815260200190815260200160002060008373ffffffffffffffffffffffffffffffffffffffff1673ffffffffffffffffffffffffffffffffffffffff16815260200190815260200160002060009054906101000a900460ff16905092915050565b6127b16122e6565b612823576040517f08c379a00000000000000000000000000000000000000000000000000000000081526004018080602001828103825260208152602001807f4f776e61626c653a2063616c6c6572206973206e6f7420746865206f776e657281525060200191505060405180910390fd5b61282c81612a6f565b50565b6000806001600084815260200190815260200160002060009054906101000a900473ffffffffffffffffffffffffffffffffffffffff169050600073ffffffffffffffffffffffffffffffffffffffff168173ffffffffffffffffffffffffffffffffffffffff161415915050919050565b6128ab8282612bb5565b6128b58282612dcd565b6128be81612e94565b5050565b60006128cd8261282f565b612922576040517f08c379a000000000000000000000000000000000000000000000000000000000815260040180806020018281038252602c815260200180613ab4602c913960400191505060405180910390fd5b600061292d836117be565b90508073ffffffffffffffffffffffffffffffffffffffff168473ffffffffffffffffffffffffffffffffffffffff16148061299c57508373ffffffffffffffffffffffffffffffffffffffff1661298484610e3f565b73ffffffffffffffffffffffffffffffffffffffff16145b806129ad57506129ac8185612715565b5b91505092915050565b6129c1838383612ee0565b6129cb838261313b565b6129d58282612dcd565b505050565b6129ec6129e6826117be565b826132d9565b50565b600081600001549050919050565b612a088484846129b6565b612a1484848484613336565b612a69576040517f08c379a0000000000000000000000000000000000000000000000000000000008152600401808060200182810382526032815260200180613a386032913960400191505060405180910390fd5b50505050565b600073ffffffffffffffffffffffffffffffffffffffff168173ffffffffffffffffffffffffffffffffffffffff161415612af5576040517f08c379a0000000000000000000000000000000000000000000000000000000008152600401808060200182810382526026815260200180613a6a6026913960400191505060405180910390fd5b8073ffffffffffffffffffffffffffffffffffffffff16600c60009054906101000a900473ffffffffffffffffffffffffffffffffffffffff1673ffffffffffffffffffffffffffffffffffffffff167f8be0079c531659141344cd1fd0a4f28419497f9722a3daafe3b4186f6b6457e060405160405180910390a380600c60006101000a81548173ffffffffffffffffffffffffffffffffffffffff021916908373ffffffffffffffffffffffffffffffffffffffff16021790555050565b600073ffffffffffffffffffffffffffffffffffffffff168273ffffffffffffffffffffffffffffffffffffffff161415612c58576040517f08c379a00000000000000000000000000000000000000000000000000000000081526004018080602001828103825260208152602001807f4552433732313a206d696e7420746f20746865207a65726f206164647265737381525060200191505060405180910390fd5b612c618161282f565b15612cd4576040517f08c379a000000000000000000000000000000000000000000000000000000000815260040180806020018281038252601c8152602001807f4552433732313a20746f6b656e20616c7265616479206d696e7465640000000081525060200191505060405180910390fd5b816001600083815260200190815260200160002060006101000a81548173ffffffffffffffffffffffffffffffffffffffff021916908373ffffffffffffffffffffffffffffffffffffffff160217905550612d6d600360008473ffffffffffffffffffffffffffffffffffffffff1673ffffffffffffffffffffffffffffffffffffffff16815260200190815260200160002061351f565b808273ffffffffffffffffffffffffffffffffffffffff16600073ffffffffffffffffffffffffffffffffffffffff167fddf252ad1be2c89b69c2b068fc378daa952ba7f163c4a11628f55a4df523b3ef60405160405180910390a45050565b600560008373ffffffffffffffffffffffffffffffffffffffff1673ffffffffffffffffffffffffffffffffffffffff168152602001908152602001600020805490506006600083815260200190815260200160002081905550600560008373ffffffffffffffffffffffffffffffffffffffff1673ffffffffffffffffffffffffffffffffffffffff1681526020019081526020016000208190806001815401808255809150509060018203906000526020600020016000909192909190915055505050565b6007805490506008600083815260200190815260200160002081905550600781908060018154018082558091505090600182039060005260206000200160009091929091909150555050565b8273ffffffffffffffffffffffffffffffffffffffff16612f00826117be565b73ffffffffffffffffffffffffffffffffffffffff1614612f6c576040517f08c379a0000000000000000000000000000000000000000000000000000000008152600401808060200182810382526029815260200180613bc96029913960400191505060405180910390fd5b600073ffffffffffffffffffffffffffffffffffffffff168273ffffffffffffffffffffffffffffffffffffffff161415612ff2576040517f08c379a0000000000000000000000000000000000000000000000000000000008152600401808060200182810382526024815260200180613a906024913960400191505060405180910390fd5b612ffb81613535565b613042600360008573ffffffffffffffffffffffffffffffffffffffff1673ffffffffffffffffffffffffffffffffffffffff1681526020019081526020016000206135f3565b613089600360008473ffffffffffffffffffffffffffffffffffffffff1673ffffffffffffffffffffffffffffffffffffffff16815260200190815260200160002061351f565b816001600083815260200190815260200160002060006101000a81548173ffffffffffffffffffffffffffffffffffffffff021916908373ffffffffffffffffffffffffffffffffffffffff160217905550808273ffffffffffffffffffffffffffffffffffffffff168473ffffffffffffffffffffffffffffffffffffffff167fddf252ad1be2c89b69c2b068fc378daa952ba7f163c4a11628f55a4df523b3ef60405160405180910390a4505050565b60006131936001600560008673ffffffffffffffffffffffffffffffffffffffff1673ffffffffffffffffffffffffffffffffffffffff1681526020019081526020016000208054905061361690919063ffffffff16565b9050600060066000848152602001908152602001600020549050818114613280576000600560008673ffffffffffffffffffffffffffffffffffffffff1673ffffffffffffffffffffffffffffffffffffffff168152602001908152602001600020838154811061320057fe5b9060005260206000200154905080600560008773ffffffffffffffffffffffffffffffffffffffff1673ffffffffffffffffffffffffffffffffffffffff168152602001908152602001600020838154811061325857fe5b9060005260206000200181905550816006600083815260200190815260200160002081905550505b600560008573ffffffffffffffffffffffffffffffffffffffff1673ffffffffffffffffffffffffffffffffffffffff1681526020019081526020016000208054809190600190036132d29190613973565b5050505050565b6132e3828261369f565b6000600b60008381526020019081526020016000208054600181600116156101000203166002900490501461333257600b60008281526020019081526020016000206000613331919061399f565b5b5050565b60006133578473ffffffffffffffffffffffffffffffffffffffff166136d9565b6133645760019050613517565b60008473ffffffffffffffffffffffffffffffffffffffff1663150b7a02338887876040518563ffffffff1660e01b8152600401808573ffffffffffffffffffffffffffffffffffffffff1673ffffffffffffffffffffffffffffffffffffffff1681526020018473ffffffffffffffffffffffffffffffffffffffff1673ffffffffffffffffffffffffffffffffffffffff16815260200183815260200180602001828103825283818151815260200191508051906020019080838360005b8381101561343f578082015181840152602081019050613424565b50505050905090810190601f16801561346c5780820380516001836020036101000a031916815260200191505b5095505050505050602060405180830381600087803b15801561348e57600080fd5b505af11580156134a2573d6000803e3d6000fd5b505050506040513d60208110156134b857600080fd5b8101908080519060200190929190505050905063150b7a0260e01b7bffffffffffffffffffffffffffffffffffffffffffffffffffffffff1916817bffffffffffffffffffffffffffffffffffffffffffffffffffffffff1916149150505b949350505050565b6001816000016000828254019250508190555050565b600073ffffffffffffffffffffffffffffffffffffffff166002600083815260200190815260200160002060009054906101000a900473ffffffffffffffffffffffffffffffffffffffff1673ffffffffffffffffffffffffffffffffffffffff16146135f05760006002600083815260200190815260200160002060006101000a81548173ffffffffffffffffffffffffffffffffffffffff021916908373ffffffffffffffffffffffffffffffffffffffff1602179055505b50565b61360b6001826000015461361690919063ffffffff16565b816000018190555050565b60008282111561368e576040517f08c379a000000000000000000000000000000000000000000000000000000000815260040180806020018281038252601e8152602001807f536166654d6174683a207375627472616374696f6e206f766572666c6f77000081525060200191505060405180910390fd5b600082840390508091505092915050565b6136a982826136ec565b6136b3828261313b565b600060066000838152602001908152602001600020819055506136d58161387b565b5050565b600080823b905060008111915050919050565b8173ffffffffffffffffffffffffffffffffffffffff1661370c826117be565b73ffffffffffffffffffffffffffffffffffffffff1614613778576040517f08c379a0000000000000000000000000000000000000000000000000000000008152600401808060200182810382526025815260200180613c9f6025913960400191505060405180910390fd5b61378181613535565b6137c8600360008473ffffffffffffffffffffffffffffffffffffffff1673ffffffffffffffffffffffffffffffffffffffff1681526020019081526020016000206135f3565b60006001600083815260200190815260200160002060006101000a81548173ffffffffffffffffffffffffffffffffffffffff021916908373ffffffffffffffffffffffffffffffffffffffff16021790555080600073ffffffffffffffffffffffffffffffffffffffff168373ffffffffffffffffffffffffffffffffffffffff167fddf252ad1be2c89b69c2b068fc378daa952ba7f163c4a11628f55a4df523b3ef60405160405180910390a45050565b6000613896600160078054905061361690919063ffffffff16565b90506000600860008481526020019081526020016000205490506000600783815481106138bf57fe5b9060005260206000200154905080600783815481106138da57fe5b906000526020600020018190555081600860008381526020019081526020016000208190555060078054809190600190036139159190613973565b506000600860008681526020019081526020016000208190555050505050565b6040518060800160405280600081526020016000815260200160008152602001600073ffffffffffffffffffffffffffffffffffffffff1681525090565b81548183558181111561399a5781836000526020600020918201910161399991906139e7565b5b505050565b50805460018160011615610100020316600290046000825580601f106139c557506139e4565b601f0160209004906000526020600020908101906139e391906139e7565b5b50565b613a0991905b80821115613a055760008160009055506001016139ed565b5090565b9056fe455243373231456e756d657261626c653a206f776e657220696e646578206f7574206f6620626f756e64734552433732313a207472616e7366657220746f206e6f6e20455243373231526563656976657220696d706c656d656e7465724f776e61626c653a206e6577206f776e657220697320746865207a65726f20616464726573734552433732313a207472616e7366657220746f20746865207a65726f20616464726573734552433732313a206f70657261746f7220717565727920666f72206e6f6e6578697374656e7420746f6b656e4164647265737320646f6573206e6f742062656c6f6e6720746f20616e20617070726f76656420455243323020746f6b656e4552433732313a20617070726f76652063616c6c6572206973206e6f74206f776e6572206e6f7220617070726f76656420666f7220616c6c4552433732313a2062616c616e636520717565727920666f7220746865207a65726f20616464726573734552433732313a206f776e657220717565727920666f72206e6f6e6578697374656e7420746f6b656e4552433732313a20617070726f76656420717565727920666f72206e6f6e6578697374656e7420746f6b656e4552433732313a207472616e73666572206f6620746f6b656e2074686174206973206e6f74206f776e4552433732314d657461646174613a2055524920717565727920666f72206e6f6e6578697374656e7420746f6b656e4552433732313a20617070726f76616c20746f2063757272656e74206f776e65724552433732313a207472616e736665722063616c6c6572206973206e6f74206f776e6572206e6f7220617070726f766564455243373231456e756d657261626c653a20676c6f62616c20696e646578206f7574206f6620626f756e64734552433732313a206275726e206f6620746f6b656e2074686174206973206e6f74206f776ea165627a7a72305820edfabadd20ee59191351a3d0667aa8f07d27f8fc4650f034fbed05cd60c94ddd0029",
    "source": "pragma solidity ^0.5.0;\r\n\r\nimport \"./ERC721Full.sol\";\r\nimport \"./Ownable.sol\";\r\n\r\ncontract PlantBase is ERC721Full, Ownable {\r\n\r\n    // TODO DECIDE ON NAME AND SYMBOL FOR OUR PLANTS\r\n    constructor() ERC721Full(\"Ethgarden.io\", \"GROW\") public {\r\n    }\r\n\r\n    // TODO Figure out if you need a Grown event\r\n    event Grown(uint256 plantId, uint256 stats);\r\n\r\n    struct Plant {\r\n        // Attributes stored here\r\n        uint256 seed;\r\n        \r\n        // Stored value in wei //TODO REEVALUATE SIZE\r\n        uint256 value;\r\n\r\n        // When it was planted //TODO REEVALUATE SIZE\r\n        uint256 plantTime;\r\n\r\n        // Address of potential ERC20 contract\r\n        address ERC20Address;\r\n    }\r\n\r\n    // Fee for creating a seed, going to be the reward for shipping it // TODO REEVALUATE VALUE\r\n    uint256 public shippingFee = 0.0001 ether;\r\n    \r\n    // Minimum plant price // TODO REEVALUATE VALUE\r\n    uint256 public minPlantPrice = 0.0001 ether;\r\n\r\n    // How many seconds it takes to grow a plant // TODO MAYBE DO IT WITH BLOCK NUMBER INSTEAD IDK (SEARCH FOR now KEYWORD IF YOU CHANGE IT)\r\n    uint256 public timeToGrow = 0;\r\n\r\n    // If plantifying ERC20 tokens is available\r\n    mapping (address => bool) public isApprovedERC20;\r\n    \r\n    // Array of plants\r\n    Plant[] public plants;\r\n\r\n\r\n    function mint() public payable {\r\n        require(msg.value >= shippingFee + minPlantPrice, \"A plant cost more than that\");\r\n        uint256 _value = uint256(msg.value - shippingFee);\r\n        Plant memory _plant = Plant({\r\n            seed: 0,\r\n            value: _value,\r\n            plantTime: block.number,\r\n            ERC20Address: address(0) // TODO Be sure what this does\r\n        });\r\n        uint _id = plants.push(_plant) - 1; //Zero indexed aray, the push returns array length\r\n        _mint(msg.sender, _id);\r\n    }\r\n\r\n    function mintERC20(address _address) public payable { //TODO EVALUATE SECURITY (CALLSTACK DEBTH?)\r\n        // Require address is approved\r\n        require(isApprovedERC20[_address], \"Address does not belong to an approved ERC20 token\");\r\n        \r\n        // You still gotta pay a shipping fee\r\n        require(msg.value >= shippingFee, \"Pay the shipping fee\"); //TODO WHAT HAPPENS IF TOO MUCH ETHER?\r\n        \r\n        // Check if there is an allowance\r\n        ( , bytes memory allowance) = _address.staticcall(abi.encodeWithSignature(\"allowance(address,address)\", msg.sender, address(this))); // This contract will never give an allowance, so this is safe?\r\n        (uint256 _allowance) = abi.decode(allowance, (uint256));\r\n        require(_allowance > 0, \"There is no allowance\");\r\n        \r\n        // Check balance of this contract before\r\n        // ( , bytes memory contractBefore) = _address.staticcall(abi.encodeWithSelector(bytes4(keccak256(\"balanceOf(address)\")), address(this)));\r\n        \r\n        // Check balance of sender before\r\n        // ( , bytes memory senderBefore) = _address.staticcall(abi.encodeWithSelector(bytes4(keccak256(\"balanceOf(address)\")), msg.sender));\r\n        \r\n        // Call the transferFrom function to transfer the ERC20 tokens\r\n        ( , bytes memory success) = _address.call(abi.encodeWithSignature(\"transferFrom(address,address,uint256)\", msg.sender, address(this), _allowance)); // This contract will never give and allowance, so this is safe?\r\n        // require(abi.decode(alsoSuccess, (bool)), \"hello\"); //Maybe do something withthis?\r\n        \r\n        // Check balance of this contract after\r\n        // ( , bytes memory contractAfter) = _address.staticcall(abi.encodeWithSelector(bytes4(keccak256(\"balanceOf(address)\")), address(this)));\r\n        \r\n        // Check balance of sender after\r\n        // ( , bytes memory senderAfter) = _address.staticcall(abi.encodeWithSelector(bytes4(keccak256(\"balanceOf(address)\")), msg.sender));\r\n\r\n   \r\n        // Check if it the befores and afters match up with the allowance\r\n        // assert((abi.decode(contractBefore, (uint256)) + _allowance) == abi.decode(contractAfter, (uint256)) && (abi.decode(senderBefore, (uint256)) - _allowance) == abi.decode(senderAfter, (uint256)), \"Math does not work out\");\r\n        \r\n        Plant memory _plant = Plant({\r\n            seed: 0,\r\n            value: _allowance,\r\n            plantTime: block.number,\r\n            ERC20Address: _address\r\n        });\r\n        uint _id = plants.push(_plant) - 1;\r\n        _mint(msg.sender, _id);\r\n    }\r\n\r\n    function shipIt(uint _tokenId) public { //TODO EVALUATE SECURITY (CALLSTACK DEPTH?)\r\n        // Check for validity of tokenId\r\n        require(_exists(_tokenId), \"Plant is burned or not minted\");\r\n        // Check if stats are already rolles / if plant is already shipped\r\n        require(plants[_tokenId].seed == 0, \"Plant is already shipped\");\r\n        // Check time requirement\r\n        require(plants[_tokenId].plantTime + timeToGrow <= block.number, \"Plant is not ready for shipping\");\r\n        \r\n        // Rolling for stats with some \"randomness\" //TODO Find out which attributes are meaningfull to include\r\n        plants[_tokenId].seed = uint256(keccak256(abi.encodePacked(blockhash(block.number - 1), plants[_tokenId].value, msg.sender, plants.length)));\r\n        \r\n        msg.sender.transfer(shippingFee);\r\n        \r\n        // Emmiting grown event\r\n        emit Grown(_tokenId, plants[_tokenId].seed);\r\n    }\r\n\r\n    function refund(uint _tokenId) public { //TODO EVALUATE SECURITY\r\n        _burn(_tokenId);\r\n        if(plants[_tokenId].ERC20Address == address(0)) {\r\n            msg.sender.transfer(plants[_tokenId].value);\r\n        } else {\r\n            plants[_tokenId].ERC20Address.call(abi.encodeWithSignature(\"transfer(address,uint256)\", msg.sender, plants[_tokenId].value));\r\n        }\r\n    }\r\n\r\n    // TODO REMOVE DEBUG FUNCTION FOR NOW\r\n    function debugTime() public view returns (uint) {\r\n        return now;\r\n    }\r\n\r\n    function approveERC20(address _address) external onlyOwner() { //TODO MAKE ONLY OWNER\r\n        isApprovedERC20[_address] = true;\r\n    }\r\n\r\n    // // TODO REEVALUATE IF YOU NEED THIS WITH THE ENUMERATE EXTENSION\r\n    // /// @notice Returns a list of all Plant IDs assigned to an address.\r\n    // /// @param _owner The owner whose plants we are interested in.\r\n    // /// @dev Taken from the crypto kitties smart contract\r\n    // function tokensOfOwner(address _owner) external view returns(uint256[] memory ownerTokens) {\r\n    //     uint256 tokenCount = balanceOf(_owner);\r\n\r\n    //     if (tokenCount == 0) {\r\n    //         // Return an empty array\r\n    //         return new uint256[](0);\r\n    //     } else {\r\n    //         uint256[] memory result = new uint256[](tokenCount);\r\n    //         uint256 totalPlants = plants.length - 1;\r\n    //         uint256 resultIndex = 0;\r\n\r\n    //         // We count on the fact that all plants have IDs starting at 1 and increasing\r\n    //         // sequentially up to the totalPlants count.\r\n    //         uint256 plantId;\r\n\r\n    //         for (plantId = 1; plantId <= totalPlants; plantId++) {\r\n    //             if (ownerOf(plantId) == _owner) {\r\n    //                 result[resultIndex] = plantId;\r\n    //                 resultIndex++;\r\n    //             }\r\n    //         }\r\n\r\n    //         return result;\r\n    //     }\r\n    // }\r\n}",
    "sourcePath": "C:/Users/johan/Projects/ethGarden.io/contracts/PlantBase.sol",
    "compiler": {
        "name": "solc",
        "version": "0.5.8+commit.23d335f2.Emscripten.clang"
    },
    "schemaVersion": "3.0.16",
    "updatedAt": "2019-12-02T13:23:18.104Z",
    "devdoc": {
        "methods": {
            "approve(address,uint256)": {
                "details": "Approves another address to transfer the given token ID\r The zero address indicates there is no approved address.\r There can only be one approved address per token at a given time.\r Can only be called by the token owner or an approved operator.\r",
                "params": {
                    "to": "address to be approved for the given token ID\r",
                    "tokenId": "uint256 ID of the token to be approved\r"
                }
            },
            "balanceOf(address)": {
                "details": "Gets the balance of the specified address.\r",
                "params": {
                    "owner": "address to query the balance of\r"
                },
                "return": "uint256 representing the amount owned by the passed address\r"
            },
            "getApproved(uint256)": {
                "details": "Gets the approved address for a token ID, or zero if no address set\r Reverts if the token ID does not exist.\r",
                "params": {
                    "tokenId": "uint256 ID of the token to query the approval of\r"
                },
                "return": "address currently approved for the given token ID\r"
            },
            "isApprovedForAll(address,address)": {
                "details": "Tells whether an operator is approved by a given owner.\r",
                "params": {
                    "operator": "operator address which you want to query the approval of\r",
                    "owner": "owner address which you want to query the approval of\r"
                },
                "return": "bool whether the given operator is approved by the given owner\r"
            },
            "isOwner()": {
                "details": "Returns true if the caller is the current owner.\r"
            },
            "name()": {
                "details": "Gets the token name.",
                "return": "string representing the token name"
            },
            "owner()": {
                "details": "Returns the address of the current owner.\r"
            },
            "ownerOf(uint256)": {
                "details": "Gets the owner of the specified token ID.\r",
                "params": {
                    "tokenId": "uint256 ID of the token to query the owner of\r"
                },
                "return": "address currently marked as the owner of the given token ID\r"
            },
            "safeTransferFrom(address,address,uint256)": {
                "details": "Safely transfers the ownership of a given token ID to another address\r If the target address is a contract, it must implement {IERC721Receiver-onERC721Received},\r which is called upon a safe transfer, and return the magic value\r `bytes4(keccak256(\"onERC721Received(address,address,uint256,bytes)\"))`; otherwise,\r the transfer is reverted.\r Requires the msg.sender to be the owner, approved, or operator\r",
                "params": {
                    "from": "current owner of the token\r",
                    "to": "address to receive the ownership of the given token ID\r",
                    "tokenId": "uint256 ID of the token to be transferred\r"
                }
            },
            "safeTransferFrom(address,address,uint256,bytes)": {
                "details": "Safely transfers the ownership of a given token ID to another address\r If the target address is a contract, it must implement {IERC721Receiver-onERC721Received},\r which is called upon a safe transfer, and return the magic value\r `bytes4(keccak256(\"onERC721Received(address,address,uint256,bytes)\"))`; otherwise,\r the transfer is reverted.\r Requires the msg.sender to be the owner, approved, or operator\r",
                "params": {
                    "_data": "bytes data to send along with a safe transfer check\r",
                    "from": "current owner of the token\r",
                    "to": "address to receive the ownership of the given token ID\r",
                    "tokenId": "uint256 ID of the token to be transferred\r"
                }
            },
            "setApprovalForAll(address,bool)": {
                "details": "Sets or unsets the approval of a given operator\r An operator is allowed to transfer all tokens of the sender on their behalf.\r",
                "params": {
                    "approved": "representing the status of the approval to be set\r",
                    "to": "operator address to set the approval\r"
                }
            },
            "supportsInterface(bytes4)": {
                "details": "See `IERC165.supportsInterface`.     * Time complexity O(1), guaranteed to always use less than 30 000 gas."
            },
            "symbol()": {
                "details": "Gets the token symbol.",
                "return": "string representing the token symbol"
            },
            "tokenByIndex(uint256)": {
                "details": "Gets the token ID at a given index of all the tokens in this contract Reverts if the index is greater or equal to the total number of tokens.",
                "params": {
                    "index": "uint256 representing the index to be accessed of the tokens list"
                },
                "return": "uint256 token ID at the given index of the tokens list"
            },
            "tokenOfOwnerByIndex(address,uint256)": {
                "details": "Gets the token ID at a given index of the tokens list of the requested owner.",
                "params": {
                    "index": "uint256 representing the index to be accessed of the requested tokens list",
                    "owner": "address owning the tokens list to be accessed"
                },
                "return": "uint256 token ID at the given index of the tokens list owned by the requested address"
            },
            "tokenURI(uint256)": {
                "details": "Returns an URI for a given token ID. Throws if the token ID does not exist. May return an empty string.",
                "params": {
                    "tokenId": "uint256 ID of the token to query"
                }
            },
            "totalSupply()": {
                "details": "Gets the total amount of tokens stored by the contract.",
                "return": "uint256 representing the total amount of tokens"
            },
            "transferFrom(address,address,uint256)": {
                "details": "Transfers the ownership of a given token ID to another address.\r Usage of this method is discouraged, use {safeTransferFrom} whenever possible.\r Requires the msg.sender to be the owner, approved, or operator.\r",
                "params": {
                    "from": "current owner of the token\r",
                    "to": "address to receive the ownership of the given token ID\r",
                    "tokenId": "uint256 ID of the token to be transferred\r"
                }
            },
            "transferOwnership(address)": {
                "details": "Transfers ownership of the contract to a new account (`newOwner`).\r Can only be called by the current owner.\r"
            }
        }
    },
    "userdoc": {
        "methods": {}
    }
}